:020000040800F2
:100000000005002001010008A71700087911000869
:10001000A5170008CB0100083918000800000000EF
:10002000000000000000000000000000AB17000806
:10003000CD01000800000000A9170008AD17000856
:100040001B0100081B0100081B0100081B01000820
:100050001B0100081B0100081B0100081B01000810
:100060001B0100081B0100081B0100081B01000800
:100070001B0100081B0100081B0100081B010008F0
:100080001B0100081B0100081B0100081B010008E0
:100090001B0100081B0100081B0100081B010008D0
:1000A0001B0100081B0100081B0100081B010008C0
:1000B0001B0100081B0100081B0100081B010008B0
:1000C0001B0100081B0100081B0100081B010008A0
:1000D0001B0100081B0100081B0100081B01000890
:1000E000CF0100081B0100081B010008DFF80CD03D
:1000F00000F050F800480047AD1D00080005002042
:100100000648804706480047FEE7FEE7FEE7FEE7B1
:10011000FEE7FEE7FEE7FEE7FEE7FEE7F117000871
:10012000ED000008202A04DB203A21FA02F0002129
:10013000704721FA02F3D040C2F1200291400843F7
:1001400019467047D2B201E000F8012B491EFBD2DC
:1001500070470022F6E710B513460A4604461946D2
:10016000FFF7F0FF204610BD30B50B4601460020DA
:100170002022012409E021FA02F59D4205D303FA69
:1001800002F5491B04FA02F52844151EA2F10102EA
:10019000F1DC30BD064C074D06E0E06840F001039D
:1001A00094E8070098471034AC42F6D3FFF7A2FF5B
:1001B0005C2000087C20000800F00F01000900EB23
:1001C000800001EB4000C0B27047FEE7704710B5F9
:1001D0004FF4806000F0B4F94FF4006000F0B0F923
:1001E000BDE810404FF4804000F0AAB90649002055
:1001F000C8610648016941F004010161016941F0EB
:100200004001016170470000E00000200020024032
:10021000064A0021D16106490A6942F002020A61D8
:100220004861086940F0400008617047E000002024
:1002300000200240044B0022DA61044A136943F0B3
:100240000103136101807047E0000020002002409C
:1002500014480022C168CB06134904D5CA6942F08C
:100260000202CA611022C3685B0705D5CB6943F05F
:100270000103CB6142F00402C369DB0707D0CB69FD
:1002800043F00403CB61C16921F00101C161A2F512
:100290008071013901D0C2607047C16921F001014C
:1002A000C161704700200240E000002070B50546A3
:1002B00000F04CFA0646114C09E0681C07D025B145
:1002C00000F044FA801BA84201D9032070BDE06809
:1002D000C007F2D1E068800601D52020E060E06828
:1002E000C00605D4E069C00702D1E068400703D525
:1002F000FFF7AEFF012070BD002070BD002002405E
:1003000010B586B0044600F005F90120CDE90240A1
:1003100001900020009004A9684600F05DF800F00C
:10032000AFF806B010BD0088704770B50C460546A2
:1003300000F0F0F82246E3172946012000F0AAF861
:10034000BDE8704000F09CB810B586B004464FF48C
:100350007A72072103A88DE8070001230022D0212B
:10036000134800F0B3FA9DF80C00FFF725FF20704A
:100370009DF80D00FFF720FF60709DF80E00FFF75D
:100380001BFFA0709DF80F00FFF716FFE0709DF8AF
:100390001000FFF711FF20719DF81100FFF70CFF0F
:1003A00060719DF81200FFF707FFA07106B010BD45
:1003B0004000002070B5044600F0C8F90546601CF6
:1003C00002D004480078044400F0C0F9401BA04269
:1003D000FAD370BD300000202DE9F04705462648CD
:1003E0000F460126017E01290FD0012181460176A9
:1003F0002868DFF888804CF25034022808D0A246E2
:100400002046FFF753FFA8B131E00220BDE8F08796
:100410002046FFF74BFF08BB0120FFF7E7FE204611
:10042000FFF744FFD8F81010064621F00401C8F881
:1004300010101CE04FF0FF303860AC6811E020462F
:10044000FFF7E6FE5046FFF731FFD8F81010060020
:1004500021F00201C8F8101001D03C6007E004F55B
:100460008064D5E9020100EB8120A042E7D8002199
:1004700089F818103046C9E7E0000020002002404B
:100480000348016941F080010161002070470000CC
:10049000002002402DE9F05F07461C4888460024F2
:1004A000017E15461E46012909D0012181460176AB
:1004B0004CF2503A5046FFF7F9FE18B122E0022004
:1004C000BDE8F09F012F02D0022F00D00427D346B1
:1004D000DFF83CA0220128463146FFF723FE81B217
:1004E00008EB4400FFF7A6FE5846FFF7DFFEDAF8F8
:1004F000102022F00102CAF8102018B9641CE4B2DE
:10050000BC42E7D3002289F81820D9E7E000002098
:1005100000200240064900200A69120607D5054A54
:100520004A60054A4A600969090600D501207047FA
:100530000020024023016745AB89EFCD70470000E2
:10054000044910B50A68024202D00860FFF7F6FFBE
:1005500010BD0000140401402DE9F84FDFF8B891F8
:10056000002409F1040A0AF1040B23460F270BF1BA
:10057000040EC9E00125A5402A40AA427DD1674E5C
:10058000D1F804C0ACEB0608B44532D014DCBCF1A1
:10059000030F3AD009DCBCF1000F2AD0BCF1010FE7
:1005A0001CD0BCF1020F31D11DE0BCF1110F17D0EE
:1005B000BCF1120F2AD119E0B8F5881F19D006DC5A
:1005C000B8F5803F15D0B8F5801F1FD111E0B8F500
:1005D000001F0ED0B8F5041F18D10AE0CB6815E053
:1005E000CB681B1D12E0CB6808330FE0CB680C33DF
:1005F0000CE08B682BB1012B4FF0080303D0456151
:1006000004E0042302E0056100E00023FF2A01D892
:10061000064601E000F104064FEA840501D9A5F180
:100620002005D6F8008007FA05FC28EA0C0803FA32
:1006300005F548EA0508C6F800804D68ED0062D56A
:10064000374DAE6946F00106AE61AD6924F0030690
:1006500005F001050095334D06EB050CDCF808505C
:10066000A607360F07FA06F825EA0805DFF8B8806E
:10067000404503D14FF0000817E044E0DFF8AC80BC
:10068000404502D14FF001080FE0DFF8A48040455B
:1006900002D14FF0020808E0DFF89880404502D10F
:1006A0004FF0030801E04FF0040808FA06F848EAA2
:1006B0000508CCF808804D68D9F80060ED034D4678
:1006C00001D5164300E096432E604D68DAF80060CD
:1006D000AD03554601D5164300E096432E604D68A4
:1006E000DBF80060ED025D4601D5164300E096435D
:1006F0002E604D68DEF80060AD02754601D51643E8
:1007000000E096432E60641C0D682A46E5407FF4A5
:1007100031AFBDE8F88F0000000401400000111067
:10072000001002400000014000080140000C0140A0
:1007300000100140001401408068084000D00120F2
:1007400070470AB1016170470904FBE701488068FE
:10075000704700003000002070B504001BD094F8F2
:100760003D00002520B984F83C50204600F0BEF939
:10077000242084F83D002068016821F00101016017
:1007800000F010FB4D4A6168914201D84C4900E0ED
:100790004C49884201D2012070BD4B492368B0FB0F
:1007A000F1F15E6826F03F060E435E606368934297
:1007B00006D94FF4967359434FF47A73B1FBF3F1B2
:1007C0002368491C1E6A26F03F063143196261689E
:1007D000914210D84900401EB0FBF1F2521CC2F306
:1007E0000B02042A01D2042022E0B0FBF1F0401CED
:1007F000C0F30B001CE0A368F3B301EBC10202EBF2
:100800000116421EB2FBF6F2521C42F4804212055F
:1008100049D093B301EBC10202EB0111401EB0FBC2
:10082000F1F0401CC0F30B0040F4804040F4004065
:100830002168CA694CF6FF739A431043C861D4E932
:100840000701084321680A6822F0C00210430860CB
:10085000D4E9030101432068826848F2FF339A43D8
:1008600011438160D4E9050108432168CA6822F078
:10087000FF021043C86001E00EE016E02068016846
:1008800041F0010101602564202084F83D002563CA
:1008900084F83E50002070BD01EB4106421EB2FBC1
:1008A000F6F2521CB3E70120C2E701EB4101401E02
:1008B000B0FBF1F0401CC0F30B00B7E7A0860100CD
:1008C00080841E0000093D0040420F002DE9FF4FCB
:1008D00083B09A46DDE9119793460446DDF84080DF
:1008E000FFF734FF054694F83D0020286FD1192307
:1008F00001227B492046009500F0C9FC0028F5D173
:1009000094F83C00012862D0012084F83C00206863
:100910000168C90703D1016841F001010160216844
:10092000086820F400600860222084F83D00402020
:1009300084F83E0000262664C4F82480A4F82A9097
:10094000608D20856748E062CDE9007553465A46C0
:100950002046049900F028FC00287DD1208DDFF886
:10096000888168B1012814D0022820D0206801684D
:1009700041F4806101602068416980690090A0E0D5
:100980002068416981690091016841F4007101604A
:1009900097E02068016821F48061016072B62068E8
:1009A000416981690091016841F400710CE021689E
:1009B000086840F40060086072B620684169816987
:1009C0000091016821F48061016062B679E084E001
:1009D00003284FD801280BD002283B464FF00002D5
:1009E0004146204600950ED000F051FCA0BB0FE020
:1009F0002A463946204600F0C9FC68BB20680069D9
:100A0000616A087054E000F042FC28BB72B61AE03C
:100A10002068016821F48061016072B62068006975
:100A2000616A0870606A401C6062208D401E2085EB
:100A3000608D401E60853B46002241462046009561
:100A400000F025FC40B92068016841F400710160A4
:100A500020680069616A00E012E00870606A401C6A
:100A60006062218D491E2185618D491E618562B6B6
:100A700021681BE02A463946204600F087FC18B161
:100A8000012007B0BDE8F08F20680069616A087036
:100A9000606A401C6062218D491E2185618D491E5E
:100AA000618521684A69D24352070AD409690170F5
:100AB000606A401C6062208D401E2085608D401E53
:100AC0006085208D002883D1202084F83D0084F8A3
:100AD0003E6084F83C600020D3E70220D1E70000AC
:100AE000020010000000FFFF0400010010B586B0F6
:100AF0000021009101910291039100680F49884201
:100B00001AD10F4CA06940F00800A061A0696946A5
:100B100000F008000490C0200090122001900320F3
:100B200003900848FFF718FDE06940F40010E06109
:100B3000E06900F40010049006B010BD00540040BD
:100B400000100240000C0140024881680278114404
:100B50008160704730000020074810B5016841F0FF
:100B600010010160032000F075F8002000F006F885
:100B700000F024F8002010BD0020024070B50D4D9B
:100B800004464FF47A712878B1FBF0F00A490968FD
:100B9000B1FBF0F000F0DCFA48B9102C07D20022CB
:100BA0002146501E00F036F800206C6070BD012018
:100BB00070BD0000300000203C0000200C4808B54B
:100BC000816941F001018161816901F001010091B8
:100BD000C16941F08051C161C06900F0805000904E
:100BE0000448416821F0E06141F00071416008BDB6
:100BF0000010024000000140002809DB00F01F0245
:100C0000012191404009800000F1E020C0F800116E
:100C100070470000F0B40E4B1B680C46C3F3022370
:100C2000C3F10705042D00D90425191D072901D298
:100C3000002300E0DB1E012606FA05F1491E2140D3
:100C400099409E40761E16403143F0BC00F00ABE2B
:100C50000CED00E0064900F0070208684FF6FF03BC
:100C6000184040EA0220034A104308607047000021
:100C70000CED00E00000FA052DE9F0470F460500F5
:100C800061D0434E306800F00700B84209D23068A6
:100C900020F0070038433060306800F00700B842A9
:100CA00051D128683B4C810712D5400703D56068B5
:100CB00040F4E06060602878000703D5606840F485
:100CC000605060606068A96820F0F00008436060D0
:100CD0002878C00728D06868012810D02168022829
:100CE00010D0890700292EDA616821F00301014341
:100CF0006160FFF72BFD804641F288390DE02168E5
:100D00008903EFE78901EDE7FFF720FDA0EB08017C
:100D1000494502D90320BDE8F0876068696800F0A2
:100D20000C00B0EB810FEFD1306800F00700B84243
:100D30000BD9306820F0070038433060306800F08D
:100D40000700B84201D00120E5E72878400705D523
:100D50006068E96820F4E060084360602878000774
:100D600006D56068296920F4605040EAC1006060DF
:100D700000F028F86168084AC1F30311515CC840CB
:100D80000649086006480068FFF7F8FE0020C2E741
:100D90000020024000100240442000083C000020D7
:100DA000340000200448054900684968044AC1F33A
:100DB0000221515CC84070473C00002000100240F6
:100DC0005420000812A185B00FC98DE80F0014A0AF
:100DD000144A006804905168134801F00C03042B76
:100DE00010D0082B0ED1C1F38343C9031DF80300B3
:100DF0000AD5516804AAC1F34041515C0A4A5043E4
:100E0000B0FBF1F005B0704708494843FAE700002D
:100E100002030405060708090A0B0C0D0E0F10103B
:100E2000010200000010024000127A0000093D009B
:100E30002DE9F84F040070D02078C04DC00749D08C
:100E40006868C0F38100012807D06868C0F381009A
:100E5000022809D16868C00306D52868800339D5FF
:100E600060680028E7D035E06068B0F5803F0BD0BF
:100E700010B1B0F5A02F11D0286820F48030286080
:100E8000286820F4802002E0286840F48030286040
:100E9000606890B1FFF75AFC06460AE0286840F403
:100EA00080202860F0E700BFFFF750FC801B64281B
:100EB00073D828688003F7D50CE0FFF747FC064697
:100EC00005E000BFFFF742FC801B6428F0D82868CB
:100ED0008003F7D420789A4E80074FF001094FF035
:100EE000000839D5686810F00C0F07D06868C0F3A7
:100EF0008100022809D16868C00306D428688007E9
:100F000014D52069012808D110E02069B0B1C6F8D5
:100F10000090FFF71BFC074605E00AE1FFF716FC0F
:100F2000C01B0228C4D828688007F7D528686169E3
:100F300020F0F80040EAC10028600DE0C6F800800B
:100F4000FFF704FC074604E0FFF700FCC01B022883
:100F500023D828688007F7D4207800072CD5794853
:100F6000A169D9B1C0F80090FFF7F0FB074604E093
:100F7000FFF7ECFBC01B02280FD8686A8007F7D583
:100F800071484FF4FA510068B0FBF1F0009000BFD7
:100F90000098411E0091FAD20EE080E0C0F8008077
:100FA000FFF7D4FB074604E0FFF7D0FBC01B022885
:100FB00075D8686A8007F7D42078400760D5E8695B
:100FC0000027C00008D4E86940F08050E861E86973
:100FD000012700F0805000905C480168C90513D4D7
:100FE0000168834641F480710160FFF7AFFB8246E0
:100FF00006E000BFFFF7AAFBA0EB0A0064284ED86A
:10100000DBF80000C005F5D5E06801280AD008B17A
:10101000052813D0286A20F001002862286A20F0F1
:10102000040002E0286A40F001002862E06841F212
:10103000883B98B1FFF78AFB82460BE0286A40F0B4
:1010400004002862EEE700BFFFF780FBA0EB0A0177
:1010500059455AD8286A8007F6D50CE0FFF776FB89
:10106000824605E0FFF772FBA0EB0A0159454CD818
:10107000286A8007F6D41FB1E86920F08050E86143
:10108000E06988B36968C1F38101022944D002286C
:10109000C6F8608004D0FFF759FB044638E034E01E
:1010A000FFF754FB074604E0FFF750FBC01B022884
:1010B0002BD828688001F7D4206AB0F5803F05D18D
:1010C0006868A16820F4003008436860D4E908012A
:1010D0000843696821F4741108436860C6F8609099
:1010E000FFF734FB044606E025E000BFFFF72EFBC8
:1010F000001B022809D828688001F7D51BE000BF33
:10110000FFF724FB001B022802D90320BDE8F88F5B
:1011100028688001F4D40EE00128F7D06868226ABC
:1011200000F48031914204D1616A00F47010884269
:1011300001D00120EAE70020E8E7000000100240AB
:1011400000004242800442423C0000200070004007
:1011500010B5401EB0F1807F01D3012010BD4FF0CB
:10116000E02460610F21601700F07CFB0020A0618B
:1011700007202061002010BDFEE701684A69D243C4
:1011800052050FD46FF480624A61002140F8301F8D
:10119000202242738173026942F0040202610173EA
:1011A00001207047002070472DE9F84F0446006881
:1011B00089460B9D01689846174641F4806101609D
:1011C0002068016841F48071016000954FF0011AB8
:1011D0000022514620460A9B00F059F8002853D1BE
:1011E000216809F0FE0008610AF1010B2B465946FF
:1011F00020460A9A00F07FF8F0BB206841698069B8
:1012000000902A4620460A9900F0F3F840B1206C7D
:10121000042839D12068016841F40071016033E08D
:10122000FEB2B8F1010F09D02168380A08612A46D8
:1012300020460A9900F0DDF80028E8D12068066110
:101240002A4620460A9900F0D4F80028DFD1206809
:10125000016841F4807101600095002251462046EA
:101260000A9B00F014F838B9216809F0FF0040F03B
:10127000010008612B4600E006E0594620460A9A24
:1012800000F039F8002800D00120BDE8F88F2DE9E2
:10129000F0471E4690460D460446C1F30747DDF869
:1012A000209008E0701C06D0FFF750FAA0EB090070
:1012B000B0420FD876B12068012F18D0806925EA96
:1012C00000000004000C14D000214145EAD00020A9
:1012D000BDE8F087002044F8300F20216173A0732F
:1012E000216941F02001216120730120F0E740696C
:1012F000E5E70121E9E72DE9F0479A4691460E46D8
:10130000044600254FF02008C1F3074725E0206878
:101310004069C043400514D42068016841F400715D
:10132000016021686FF480604861256384F83D8026
:1013300084F83E50206C40F00400206484F83C5057
:101340001FE0B9F1FF3F08D0FFF700FAA0EB0A0158
:1013500049450CD8B9F1000F09D02068012F13D0EE
:10136000806926EA00000004000C0BD0CFE744F8A7
:10137000305F84F80D80A573206940F02000206163
:1013800025730120BDE8F0874069EAE72DE9F041C7
:10139000002590460E460446202717E04069C043CA
:1013A000C0060CD454F8301B6FF01000486144F8AC
:1013B00010596777A577206A2062257717E0FFF735
:1013C000C5F9A0EB0800B04208D83EB120684169D9
:1013D000C9434906E2D40020BDE8F08144F8305FFB
:1013E0006773A573206940F02000206125730120F8
:1013F000F2E770B516460D4604460DE02046FFF7AD
:10140000BCFE08B1012070BD681C05D0FFF79EF935
:10141000801BA84207D835B120684069C043000648
:10142000ECD4002070BD002044F8300F20216173FF
:10143000A073216941F0200121612073E2E70000DF
:101440002DE9F05F914E0122D1033046FFF779F983
:10145000002271143046FFF774F98D4D4FF4007B74
:10146000002259462846FFF76CF94FF48047394669
:101470003046FFF761F9874C012808D12078FEF744
:1014800099FF39463046FFF757F9012808D04FF445
:10149000006949462846FFF74FF9012809D011E0B5
:1014A00039463046FFF748F90128F9D00120BDE858
:1014B000F09F2078FEF77EFF49462846FFF73CF96B
:1014C000012807D04FF480612846FFF735F901283D
:1014D00002D00BE00420EAE72078FEF76BFF4FF420
:1014E00080612846FFF728F9012807D04FF4807162
:1014F0002846FFF721F9012802D00BE00720D6E7A4
:101500002078FEF757FF4FF480712846FFF714F953
:10151000012817D000224FF400413046FFF711F99F
:10152000012251033046FFF70CF9002259462846A4
:10153000FFF707F9BA4639463046FFF7FDF80128AC
:1015400002D00AE00A20B2E72078FEF733FF5146C6
:101550003046FFF7F1F8012806D049462846FFF744
:10156000EBF8012802D00AE00220A0E72078FEF77D
:1015700021FF49462846FFF7DFF8012808D04FF43D
:10158000806841462846FFF7D7F8012802D00AE0D4
:1015900005208CE72078FEF70DFF41462846FFF72F
:1015A000CBF8012808D04FF4807739462846FFF75A
:1015B000C3F8012802D00AE0082078E72078FEF777
:1015C000F9FE39462846FFF7B7F8012817D0002260
:1015D0004FF400413046FFF7B4F800224FF40051B9
:1015E0003046FFF7AEF8012259462846FFF7A9F822
:1015F00051463046FFF7A0F8012802D00AE000204B
:1016000055E72078FEF7D6FE51463046FFF794F8AE
:10161000012807D04E4649462846FFF78DF8012895
:1016200002D00AE0032042E72078FEF7C3FE3146ED
:101630002846FFF781F8012807D04646414628464C
:10164000FFF77AF8012802D00AE006202FE7207879
:10165000FEF7B0FE31462846FFF76EF8012806D0A7
:1016600039462846FFF768F8012802D00AE0092029
:101670001DE72078FEF79EFE39462846FFF75CF806
:10168000012801D00B2012E70C2010E7000C0140CC
:1016900000080140000000202DE9F04F85B0002532
:1016A0003B480095019502950395816941F0100131
:1016B0008161816901F010010491816941F020018B
:1016C0008161816901F020010491816941F0080183
:1016D0008161816901F008010491816941F004018F
:1016E00081618069DFF8AC9000F004004FF4005491
:1016F0000490002221464846FFF723F8DFF898A01F
:101700004AF63837002239465046FFF71AF8DFF814
:101710008CB04FF41248002241465846FFF711F8AA
:101720000126CDE900460224CDE902546946484627
:10173000FEF712FFCDE90254CDE900766946504626
:10174000FEF70AFF164F6003CDE9000769460294D1
:101750005046FEF701FF4FF45060CDE9000769469F
:1017600002945846FEF7F8FECDE90254CDE9008612
:1017700069465846FEF7F0FE002211462820FFF782
:1017800049FA2820FFF738FA05B0BDE8F08F0000CD
:101790000010024000100140000C01400008014010
:1017A00000001110FEE7704770477047FFF7CCB993
:1017B00030B58FB028216846FEF7CBFC14210AA86B
:1017C000FEF7C7FC01252804CDE90050002407944A
:1017D0006846FFF72DFB0F200A90CDE90B540D94BE
:1017E00000210AA80E94FFF747FA0FB030BD0000A1
:1017F0000D48016841F00101016041680B4A114048
:10180000416001680A4A11400160016821F48021A9
:101810000160416821F4FE0141604FF41F018160C5
:101820000449C00308607047001002400000FFF840
:10183000FFFFF6FE08ED00E0FEE700000FB4084BE6
:1018400010B504A902AA039800F02CF8044602A9D6
:10185000002000F0C8F9204610BC5DF814FB000021
:10186000E71B00080907090E002804DB00F1E0204F
:1018700080F80014704700F00F0000F1E02080F8BD
:10188000141D704702E008C8121F08C1002AFAD1CF
:1018900070477047002001E001C1121F002AFBD1F0
:1018A000704700002DE9FF4F8BB0884605460026A3
:1018B00006E025280BD0DDE90D1290476D1C761C43
:1018C00028780028F5D10FB03046BDE8F08F00240D
:1018D000A146A2460122AE4900E0044315F8013FAB
:1018E000203B02FA03F00842F7D128782A2810D0CA
:1018F0006FF02F022878A0F13001092915D809EBE3
:10190000890102EB410144F0020400EB01096D1C66
:10191000F0E758F8041B5FEA010903D544F40054CA
:10192000C9F1000944F002046D1C28782E2817D153
:1019300015F8010F44F004042A280ED06FF02F028E
:101940002878A0F1300109290AD80AEB8A0102EBB4
:10195000410100EB010A6D1CF2E758F804AB6D1C65
:1019600028786C280FD006DC4C2817D068280DD0BA
:101970006A2814D104E0742810D07A280FD10DE021
:1019800044F400140AE044F4801401E044F44014E8
:101990006978814202D104F580146D1C6D1C287891
:1019A000692865D006DC00288DD0632827D06428FC
:1019B00006D15DE06E2808D073282AD0752877D02C
:1019C000DDE90D129047761CE0E0C4F302500228D6
:1019D00009D003280DD0D8F8001004280DD00E60CF
:1019E00008F10408D2E0D8F80010F217C1E900624B
:1019F000F6E7D8F800100E80F2E70E70F0E718F85E
:101A0000041B8DF8001000208DF80100EB4601202A
:101A100003E058F804BB4FF0FF3061074FF00007B8
:101A200001D40AE07F1C57450DDA8742FADB1BF828
:101A300007100029F6D106E07F1C8742FCDB1BF86B
:101A400007100029F8D1DDE90D23A9EB0700814635
:101A5000214600F0B1F83044C61904E0DDE90D126A
:101A60001BF8010B90477F1EF8D22146484688E0BC
:101A700058F8040BC4F302514FF00A0B032900D1AC
:101A800000B2042900D140B2002802DA40422D21E0
:101A900002E0210505D52B218DF82410012104E059
:101AA00006E0E10710D02021F6E708AF089113E027
:101AB00058F8040BC4F302514FF00A0B032900D16C
:101AC00080B2042900D1C0B20021EEE75946FEF7EA
:101AD0004BFB303107F8011D0028F7D1ADEB0700B3
:101AE00000F1200B600702D524F4803401E04FF0B0
:101AF000010ADA4502DDAAEB0B0000E00020824675
:101B000000EB0B0108980144A9EB01000A90E003E7
:101B100006D4DDE90D2321460A9800F04DF806446D
:101B20004FF0000908E009A911F80900DDE90D12DC
:101B3000904709F10109761C08998945F3DBE00318
:101B40000CD5DDE90D2321460A9800F035F806444E
:101B500004E0DDE90D1230209047761CBAF1000157
:101B6000AAF1010AF5DC05E0DDE90D1217F8010B19
:101B70009047761CBBF10001ABF1010BF4DC0A9835
:101B80002146DDE90D2300F005F806446D1C97E6BB
:101B9000092801002DE9F041044600251E4617469C
:101BA000880404D405E039462020B0476D1C641E2B
:101BB000F9D52846BDE8F0812DE9F041044600251D
:101BC0001E469046C80301D5302700E02027880430
:101BD00004D505E041463846B0476D1C641EF9D572
:101BE0002846BDE8F0810A68531C0B6010707047EE
:101BF0000121002000F060B870B51E20FEF7DAFB6E
:101C00001B4C002210212046FEF79BFD01220821DB
:101C10002046FEF796FD174D00224FF4004128465E
:101C2000FEF78FFD0022A1142846FEF78AFD002250
:101C300061152046FEF785FD012220212046FEF792
:101C400080FD002220212046FEF77BFD2821002078
:101C500000F032F80C21002000F02EF806210020C0
:101C600000F02AF8BDE870400121002000F024B8FF
:101C7000000C01400008014010B5144630B10128A5
:101C800006D0022806D0032811D105E0803104E0F7
:101C9000C03102E0903100E0D031C9B2002000F044
:101CA0000BF804E0C1B2012000F006F8641C2078B3
:101CB0000028F7D110BD00002DE9F04106460C4682
:101CC0000220FEF777FB374D4FF400710EB1012271
:101CD00000E000222846FEF734FDDFF8CC80200625
:101CE0004FF4805601D5012200E0002231464046E3
:101CF000FEF727FD60064FF4004701D5012200E002
:101D0000002239464046FEF71CFDA00601D50122FF
:101D100000E0002208212846FEF713FDE00601D569
:101D2000012200E0002210212846FEF70AFD0122D0
:101D300020212846FEF705FD002220212846FEF737
:101D400000FD200701D5012200E000223146404677
:101D5000FEF7F7FC600701D5012200E000223946BA
:101D60004046FEF7EEFCA00701D5012200E000226C
:101D700008212846FEF7E5FCE00701D0012200E03B
:101D8000002210212846FEF7DCFC012220212846F3
:101D9000FEF7D7FC2846BDE8F04100222021FEF7DF
:101DA000D0BC0000000C01400008014008B5FEF75F
:101DB000D3FEFFF7FDFCFFF76FFC844882494FF428
:101DC000804201608249416000218160C0E90312C4
:101DD00041618161C1610162FEF7BEFCFFF70CFF4A
:101DE000FFF706FFDFF8ECA15046FEF79CFA7A4EAB
:101DF00000B240F2E679351D7080484508D10122D5
:101E0000D1027648FEF79DFC2846FEF79DFA37E0A2
:101E10007148001DFEF798FA28786978714F00EB39
:101E20008110A97801EB4102C2EBC1116C4A02EBAF
:101E300041110144C817C6E90610AB792A796979BE
:101E400003EB0314C4EBC31402EB411007EB84044F
:101E50000444E017C6E9084092B189B1162B0FD3AC
:101E6000002804DA0122D1025C48FEF76AFC706A9D
:101E7000002805DB00224FF400615848FEF761FCA2
:101E800040F2DC5B5448001DFEF75EFA28780090B3
:101E90004E486B78AA7854A16830FFF7CFFCA87938
:101EA00000904A486B792A7953A18130FFF7C6FC2C
:101EB000464A002181320846FFF7DEFE434A0021F0
:101EC00068320120FFF7D8FEFFF7BAFA40B270700F
:101ED0000A28D7D1FFF78CFE002034464BA2C4E974
:101EE00004000146FFF7C8FE2EE014202070FFF723
:101EF000A7FA40B260700B2826D00A2824D00C28FC
:101F000025D021780A23491E2170D4E90427A2FB99
:101F1000031807FB03834FF0000C02FB0C330A1875
:101F200043EBE07329483DA100F15400C4E90423C8
:101F3000FFF784FC254A052154320120FFF79CFE5F
:101F40004FF42F70FEF736FA60780C28CDD1D4E923
:101F50000410334A5140014319D093D0FFF748FE93
:101F600030A200210120FFF787FE5846FEF722FA33
:101F70000020C4E90400FFF73BFE00224FF400619B
:101F80001648FEF7DEFB5046FEF7BAF97AE7FFF790
:101F90002FFE28A200210120FFF76EFE5846FEF713
:101FA00009FA0020C4E90400FFF722FE0122D10251
:101FB0000A48FEF7C6FB54465046FEF7A1F94946CB
:101FC0002046FEF7B2F95DE70054004040000020D3
:101FD000A086010000F4000808000020000C014069
:101FE000200EFFFF17D9FFFF253032643A2530322B
:101FF000643A253032640000253032642F253032B7
:10200000642F323025303264000000004E68617069
:10201000206D6174206B686175000000256400000C
:1020200016EDF3054D6174206B686175207361696D
:10203000000000004D6174206B6861752064756E4E
:10204000670000000000000000000000010203041F
:102050000607080900000000010203047C200008B4
:10206000000000204000000084180008BC20000888
:1020700040000020C0040000941800081E0000006A
:1020800000000000000000001E190A0511021600E1
:102090000000000000000000000000000000000040
:1020A000000000000000000000000000010000002F
:0C20B00010000000000000000024F400FC
:04000005080000ED02
:00000001FF
